RA929356262EF123456         0      98ACME USA EAST                                            UNIT 123              123 MAIN ST           NEW YORK              NY12345                                                 ACME USA EAST                                            UNIT 123              123 MAIN ST           NEW YORK              NY12345                                                 MR ADMINISTRATOR           5555555555             DEMOADMIN1@ABC-COMPANY.COM                 4444444444 L            
RE2020 929356262         0             ACME USA EAST                                            UNIT 123              123 MAIN ST           NEW YORK              NY12345    N                                            R 0MR ADMINISTRATOR           5555555555          4444444444DEMOADMIN1@ABC-COMPANY.COM                                                                                                                                                                                                                
RS25     123456789JOHN           M              DOE                     UNIT 319              4187 SPRINGFIELD ST   NEW YORK              NY00572                                                                                                                                250000000160100000001701           0000000180100000001901                                                                                                                                                                                      
RS25     123456789JOHN           M              DOE                     UNIT 319              4187 SPRINGFIELD ST   NEW YORK              NY00572                                                                                                                                250000000160200000001702           0000000180200000001902                                                                                                                                                                                      
RT0000002000000000003203000000000003403                                                                                                                                                                                                                                                                                                                                                                                                                                                                                         
RF     000000002                                                                                                                                                                                                                                                                                                                                                                                                                                                                                                                
