RA123456789EF123456         0      98ACME USA East                                                                  123 Main St Unit 123  New York              NY12345                                                 ACME USA East                                            123 Main St Unit 123  123 Main St Unit 123  New York              NY12345                                                 Mr Administrator           5405547907     165     demoadmin@abc-company.com                             L            
RE2019 123456789         0             ACME USA East                                                                  123 Main St Unit 123  New York              NY12345    N                                            R 0Mr Administrator           5405547907     165            demoadmin@abc-company.com                                                                                                                                                                                                                 
RW264269383Mr                            Administrator           Unit 422              8327 Main St          New York              NY00415                                                 00002627295000002502740000260055900000162891000026272950000003809000000026736           000026272950000000000000000000000000000000000000000000000000000000           00000026736000000000000000000000000000000000           00000000000000000000000000000000000000000000000000000000000000000000000000000 0 00                       
RO         0000002673600002627295000000267360000262729500000026736000000000000000000000000000000000           000000000000000000000000000000000                                                                                                                                   00000000000000000000000000000000000000000000000000000000000000000000000000000           0000000000000000000000                                                                                                                                
RW711027890John                          Doe                     Unit 32               2200 Springfield St   New York              NY00583                                                 00002627295000002502740000260055900000162891000026272950000003809000000026736           000026272950000000000000000000000000000000000000000000000000000000           00000026736000000000000000000000000000000000           00000000000000000000000000000000000000000000000000000000000000000000000000000 0 00                       
RO         0000002673600002627295000000267360000262729500000026736000000000000000000000000000000000           000000000000000000000000000000000                                                                                                                                   00000000000000000000000000000000000000000000000000000000000000000000000000000           0000000000000000000000                                                                                                                                
RW004876097Kitty                         Nicholas                Unit 176              4059 Ethel St         New York              NY00414                                                 00002627295000002502740000260055900000162891000026272950000003809000000026736           000026272950000000000000000000000000000000000000000000000000000000           00000026736000000000000000000000000000000000           00000000000000000000000000000000000000000000000000000000000000000000000000000 0 00                       
RO         0000002673600002627295000000267360000262729500000026736000000000000000000000000000000000           000000000000000000000000000000000                                                                                                                                   00000000000000000000000000000000000000000000000000000000000000000000000000000           0000000000000000000000                                                                                                                                
RW289804931Theodora                      Simmons                 Unit 297              5679 Springfield St   New York              NY00510                                                 00002627295000002502740000260055900000162891000026272950000003809000000026736           000026272950000000000000000000000000000000000000000000000000000000           00000026736000000000000000000000000000000000           00000000000000000000000000000000000000000000000000000000000000000000000000000 0 00                       
RO         0000002673600002627295000000267360000262729500000026736000000000000000000000000000000000           000000000000000000000000000000000                                                                                                                                   00000000000000000000000000000000000000000000000000000000000000000000000000000           0000000000000000000000                                                                                                                                
RT0000004000000010509180000000001001096000000010402236000000000651564000000010509180000000000152360000000000106944               000000010509180000000000000000000000000000000000000000000000000000000000000000000000000000               000000000106944000000000000000000000000000000000000000000000000000000000000000000000000000000000000000000000000000000000000000000000000000000000000000000000000000000000000000000000                                                                                                  
RU0000004000000000106944000000010509180000000000106944000000010509180000000000106944000000000000000000000000000000000000000000000               000000000000000000000000000000000000000000000                                                                                                                                                                     000000000000000000000000000000000000000000000000000000000000000000000000000000000000000000000000000000000000000000000000000000000000000                       
RF     000000004                                                                                                                                                                                                                                                                                                                                                                                                                                                                                                                
