RA929356262EF123456         0      98ACME USA EAST                                            UNIT 123              123 MAIN ST           NEW YORK              NY12345                                                 ACME USA EAST                                            UNIT 123              123 MAIN ST           NEW YORK              NY12345                                                 MR ADMINISTRATOR           5555555555             DEMOADMIN1@ABC-COMPANY.COM                 4444444444 L            
RE2020 929356262         0             ACME USA EAST                                            UNIT 123              123 MAIN ST           NEW YORK              NY12345    N                                            R 0MR ADMINISTRATOR           5555555555          4444444444DEMOADMIN1@ABC-COMPANY.COM                                                                                                                                                                                                                
RW123456789JOHN           M              DOE                     UNIT 319              4187 SPRINGFIELD ST   NEW YORK              NY00572                                                 00000000101000000002020000000030300000000404000000005050000000060600000000707           000000010100000000000000000000000000000000000000000000000000000000           00000001111000000000000000000000000000000000           00000000000000000000000000000000000000000000000000000000000000000000000000000 1 01                       
RO         0000000080800000001201000000012020000000120300000001204000000000000000000000000000000000           000000000000000000000000000000000                                                                                                                                   00000000000000000000000000000000000000000000000000000000000000000000000000000           0000000000000000000000                                                                                                                                
RS19     123456789JOHN           M              DOE                     UNIT 319              4187 SPRINGFIELD ST   NEW YORK              NY00572                                                         0000000000000000000000                       00000000000011223344      190000000160100000001701           0000000180100000001901654                                                                                                                                                                                   
RS19     123456789JOHN           M              DOE                     UNIT 319              4187 SPRINGFIELD ST   NEW YORK              NY00572                                                         0000000000000000000000                       00000000000011223355      190000000160200000001702           0000000180200000001902653                                                                                                                                                                                   
RW123456799JANE           N              SMITH                   UNIT 827              3322 CARRINGTON ST    SEATTLE               MS12572                                                 00000000101000000002020000000030300000000404000000005050000000060600000000707           000000010100000000000000000000000000000000000000000000000000000000           00000001111000000000000000000000000000000000           00000000000000000000000000000000000000000000000000000000000000000000000000000 1 01                       
RO         0000000080800000001201000000012020000000120300000001204000000000000000000000000000000000           000000000000000000000000000000000                                                                                                                                   00000000000000000000000000000000000000000000000000000000000000000000000000000           0000000000000000000000                                                                                                                                
RS19     123456799JANE           N              SMITH                   UNIT 827              3322 CARRINGTON ST    SEATTLE               MS12572                                                         0000000000000000000000                       00000000000011223344      190000000160100000001701           0000000180100000001901654                                                                                                                                                                                   
RS19     123456799JANE           N              SMITH                   UNIT 827              3322 CARRINGTON ST    SEATTLE               MS12572                                                         0000000000000000000000                       00000000000011223355      190000000160200000001702           0000000180200000001902653                                                                                                                                                                                   
RT0000002000000000000202000000000000404000000000000606000000000000808000000000001010000000000001212000000000001414               000000000002020000000000000000000000000000000000000000000000000000000000000000000000000000               000000000002222000000000000000000000000000000000000000000000000000000000000000000000000000000000000000000000000000000000000000000000000000000000000000000000000000000000000000000000                                                                                                  
RU0000002000000000001616000000000002402000000000002404000000000002406000000000002408000000000000000000000000000000000000000000000               000000000000000000000000000000000000000000000                                                                                                                                                                     000000000000000000000000000000000000000000000000000000000000000000000000000000000000000000000000000000000000000000000000000000000000000                       
RV0000004000000000006406000000000006806334455660000000000                                                                                                                                                                                                                                                                                                                                                                                                                                                                       
RF     000000002                                                                                                                                                                                                                                                                                                                                                                                                                                                                                                                
