RA929356262EF123456         0      98ACME USA EAST                                            UNIT 123              123 MAIN ST           NEW YORK              NY12345                                                 ACME USA EAST                                            UNIT 123              123 MAIN ST           NEW YORK              NY12345                                                 MR ADMINISTRATOR           5555555555             DEMOADMIN1@ABC-COMPANY.COM                 4444444444 L            
RE2020 929356262         0             ACME USA EAST                                            UNIT 123              123 MAIN ST           NEW YORK              NY12345    N                                            R 0MR ADMINISTRATOR           5555555555          4444444444DEMOADMIN1@ABC-COMPANY.COM                                                                                                                                                                                                                
RW123456789JOHN           M              DOE                     UNIT 319              4187 SPRINGFIELD ST   NEW YORK              NY00572                                                 00000000101000000002020000000030300000000404000000005050000000060600000000707           000000010100000000000000000000000000000000000000000000000000000000           00000001111000000000000000000000000000000000           00000000000000000000000000000000000000000000000000000000000000000000000000000 1 01                       
RO         0000000080800000001201000000012020000000120300000001204000000000000000000000000000000000           000000000000000000000000000000000                                                                                                                                   00000000000000000000000000000000000000000000000000000000000000000000000000000           0000000000000000000000                                                                                                                                
RS23     123456789JOHN           M              DOE                     UNIT 319              4187 SPRINGFIELD ST   NEW YORK              NY00572                                                         0000000000000000000000                       11223344                  230000000160100000001701           0000000180100000001901654                                                                                                                                                                                   
RS23     123456789JOHN           M              DOE                     UNIT 319              4187 SPRINGFIELD ST   NEW YORK              NY00572                                                         0000000000000000000000                       11223355                  230000000160200000001702           0000000180200000001902653                                                                                                                                                                                   
RT0000001000000000000101000000000000202000000000000303000000000000404000000000000505000000000000606000000000000707               000000000001010000000000000000000000000000000000000000000000000000000000000000000000000000               000000000001111000000000000000000000000000000000000000000000000000000000000000000000000000000000000000000000000000000000000000000000000000000000000000000000000000000000000000000000                                                                                                  
RU0000001000000000000808000000000001201000000000001202000000000001203000000000001204000000000000000000000000000000000000000000000               000000000000000000000000000000000000000000000                                                                                                                                                                     000000000000000000000000000000000000000000000000000000000000000000000000000000000000000000000000000000000000000000000000000000000000000                       
RF     000000001                                                                                                                                                                                                                                                                                                                                                                                                                                                                                                                
